{
  "transactions": [
    {
      "hash": "0x6375a842c730c7d123b62974b238cc1eb1a0a96dd277a53b4641cf3e543563c8",
      "transactionType": "CALL",
      "contractName": null,
      "contractAddress": "0xa949b7713b1eb125447feeafa36c0d03f6e45c15",
      "function": "mintNft(string)",
      "arguments": [
        "ipfs://bafybeig37ioir76s7mg5oobetncojcm3c3hxasyd4rvid4jqhy4gkaheg4/?filename=0-PUG.json"
      ],
      "transaction": {
        "from": "0x0f284b92d59c8b59e11409495be0c5e7dbe0daf9",
        "to": "0xa949b7713b1eb125447feeafa36c0d03f6e45c15",
        "gas": "0x40fd9",
        "value": "0x0",
        "input": "0xda86f4a900000000000000000000000000000000000000000000000000000000000000200000000000000000000000000000000000000000000000000000000000000057697066733a2f2f62616679626569673337696f6972373673376d67356f6f6265746e636f6a636d3363336878617379643472766964346a71687934676b61686567342f3f66696c656e616d653d302d5055472e6a736f6e000000000000000000",
        "nonce": "0x70",
        "chainId": "0xaa36a7"
      },
      "additionalContracts": [],
      "isFixedGasLimit": false
    }
  ],
  "receipts": [
    {
      "status": "0x1",
      "cumulativeGasUsed": "0xc6d4cb",
      "logs": [
        {
          "address": "0xa949b7713b1eb125447feeafa36c0d03f6e45c15",
          "topics": [
            "0xddf252ad1be2c89b69c2b068fc378daa952ba7f163c4a11628f55a4df523b3ef",
            "0x0000000000000000000000000000000000000000000000000000000000000000",
            "0x0000000000000000000000000f284b92d59c8b59e11409495be0c5e7dbe0daf9",
            "0x0000000000000000000000000000000000000000000000000000000000000000"
          ],
          "data": "0x",
          "blockHash": "0xe65ff410cff0389dce9ba9e1a9d19f5a824b1144c80453cef8ea6fb69a984b8f",
          "blockNumber": "0x6fbf64",
          "transactionHash": "0x6375a842c730c7d123b62974b238cc1eb1a0a96dd277a53b4641cf3e543563c8",
          "transactionIndex": "0x67",
          "logIndex": "0xd8",
          "removed": false
        }
      ],
      "logsBloom": "0x00000000000000000000000000000000000000000000000000000000000000000000000000000000000000000000000000000000000000000400000000000000000000000000000000000008000000000040000000000000000000000000000000000000020000000000000000000800000000000000000004000010000000000000000000000000000000000000000000000000000000000000000200000000000000000000000000000000000000000000000020000000000000000000000000000002000000000000000000000000000400000000000000000000000020000000000000000000000000000000000000000000000000000000000000000000",
      "type": "0x2",
      "transactionHash": "0x6375a842c730c7d123b62974b238cc1eb1a0a96dd277a53b4641cf3e543563c8",
      "transactionIndex": "0x67",
      "blockHash": "0xe65ff410cff0389dce9ba9e1a9d19f5a824b1144c80453cef8ea6fb69a984b8f",
      "blockNumber": "0x6fbf64",
      "gasUsed": "0x2c702",
      "effectiveGasPrice": "0x2fe90e767",
      "from": "0x0f284b92d59c8b59e11409495be0c5e7dbe0daf9",
      "to": "0xa949b7713b1eb125447feeafa36c0d03f6e45c15",
      "contractAddress": null
    }
  ],
  "libraries": [],
  "pending": [],
  "returns": {},
  "timestamp": 1734767714,
  "chain": 11155111,
  "commit": "cdbc6fc"
}